{
    "contractName": "Counter",
    "abi": [
        {
            "anonymous": false,
            "inputs": [
                {
                    "indexed": false,
                    "internalType": "uint256",
                    "name": "newValue",
                    "type": "uint256"
                }
            ],
            "name": "Increased",
            "type": "event"
        },
        {
            "inputs": [],
            "name": "increase",
            "outputs": [],
            "stateMutability": "nonpayable",
            "type": "function"
        },
        {
            "inputs": [],
            "name": "value",
            "outputs": [
                {
                    "internalType": "uint256",
                    "name": "",
                    "type": "uint256"
                }
            ],
            "stateMutability": "view",
            "type": "function"
        }
    ],
    "bytecode": "608060405234801561001057600080fd5b5060fa8061001f6000396000f3fe6080604052348015600f57600080fd5b506004361060325760003560e01c80633fa4f245146037578063e8927fbc146051575b600080fd5b603f60005481565b60405190815260200160405180910390f35b60576059565b005b6000546065906001609f565b60008190556040519081527f3496c3ede4ec3ab3686712aa1c238593ea6a42df83f98a5ec7df9834cfa577c59060200160405180910390a1565b6000821982111560bf57634e487b7160e01b600052601160045260246000fd5b50019056fea26469706673582212205053e6df2d489b5d51eda09404cd0cedcc9d4280d23a5697c13bc7a4f39f933c64736f6c63430008070033",
    "sourcePath": "c:/Users/alkha/Documents/counter-app/contract.sol",
    "compiler": {
        "name": "solc",
        "version": "0.8.7+commit.e28d00a7"
    },
    "functionHashes": {
        "increase()": "e8927fbc",
        "value()": "3fa4f245"
    },
    "gasEstimates": {
        "creation": {
            "codeDepositCost": "50000",
            "executionCost": "99",
            "totalCost": "50099"
        },
        "external": {
            "increase()": "25483",
            "value()": "2261"
        }
    }
}